Results for source/TC1.txt (32-bit Two's Complement)
------------------------------------------------------------
ITEM            BINARY               HEXADECIMAL    
------------------------------------------------------------
6980368         00000000011010101000001100010000 006A8310       
5517055         00000000010101000010111011111111 00542EFF       
1336159         00000000000101000110001101011111 0014635F       
6750185         00000000011001101111111111101001 0066FFE9       
1771937         00000000000110110000100110100001 001B09A1       
360952          00000000000001011000000111111000 000581F8       
5672561         00000000010101101000111001110001 00568E71       
916583          00000000000011011111110001100111 000DFC67       
2700138         00000000001010010011001101101010 0029336A       
9645053         00000000100100110010101111111101 00932BFD       
1181110         00000000000100100000010110110110 001205B6       
1492185         00000000000101101100010011011001 0016C4D9       
4018595         00000000001111010101000110100011 003D51A3       
7654888         00000000011101001100110111101000 0074CDE8       
7062453         00000000011010111100001110110101 006BC3B5       
2478010         00000000001001011100111110111010 0025CFBA       
6134768         00000000010111011001101111110000 005D9BF0       
8420417         00000000100000000111110001000001 00807C41       
2917489         00000000001011001000010001110001 002C8471       
3340773         00000000001100101111100111100101 0032F9E5       
1115956         00000000000100010000011100110100 00110734       
9172192         00000000100010111111010011100000 008BF4E0       
6271996         00000000010111111011001111111100 005FB3FC       
8686939         00000000100001001000110101011011 00848D5B       
50986           00000000000000001100011100101010 0000C72A       
9376410         00000000100011110001001010011010 008F129A       
5962327         00000000010110101111101001010111 005AFA57       
7686891         00000000011101010100101011101011 00754AEB       
6615183         00000000011001001111000010001111 0064F08F       
1864844         00000000000111000111010010001100 001C748C       
3329962         00000000001100101100111110101010 0032CFAA       
3942794         00000000001111000010100110001010 003C298A       
2614836         00000000001001111110011000110100 0027E634       
7406772         00000000011100010000010010110100 007104B4       
2384190         00000000001001000110000100111110 0024613E       
398347          00000000000001100001010000001011 0006140B       
8698503         00000000100001001011101010000111 0084BA87       
9551696         00000000100100011011111101010000 0091BF50       
1019556         00000000000011111000111010100100 000F8EA4       
1677430         00000000000110011001100001110110 00199876       
3479629         00000000001101010001100001001101 0035184D       
9309008         00000000100011100000101101010000 008E0B50       
5266170         00000000010100000101101011111010 00505AFA       
4094340         00000000001111100111100110000100 003E7984       
1754055         00000000000110101100001111000111 001AC3C7       
5861132         00000000010110010110111100001100 00596F0C       
4471329         00000000010001000011101000100001 00443A21       
8826052         00000000100001101010110011000100 0086ACC4       
7469325         00000000011100011111100100001101 0071F90D       
1973172         00000000000111100001101110110100 001E1BB4       
53145           00000000000000001100111110011001 0000CF99       
3897508         00000000001110110111100010100100 003B78A4       
7773386         00000000011101101001110011001010 00769CCA       
6089829         00000000010111001110110001100101 005CEC65       
4223424         00000000010000000111000111000000 004071C0       
9761752         00000000100101001111001111011000 0094F3D8       
7930799         00000000011110010000001110101111 007903AF       
3597495         00000000001101101110010010110111 0036E4B7       
9302948         00000000100011011111001110100100 008DF3A4       
2288712         00000000001000101110110001001000 0022EC48       
197187          00000000000000110000001001000011 00030243       
5266939         00000000010100000101110111111011 00505DFB       
221545          00000000000000110110000101101001 00036169       
7957027         00000000011110010110101000100011 00796A23       
3195361         00000000001100001100000111100001 0030C1E1       
7106269         00000000011011000110111011011101 006C6EDD       
9633312         00000000100100101111111000100000 0092FE20       
9713704         00000000100101000011100000101000 00943828       
91925           00000000000000010110011100010101 00016715       
4418686         00000000010000110110110001111110 00436C7E       
9682250         00000000100100111011110101001010 0093BD4A       
2583824         00000000001001110110110100010000 00276D10       
4979126         00000000010010111111100110110110 004BF9B6       
6280954         00000000010111111101011011111010 005FD6FA       
1228610         00000000000100101011111101000010 0012BF42       
705518          00000000000010101100001111101110 000AC3EE       
1017653         00000000000011111000011100110101 000F8735       
500098          00000000000001111010000110000010 0007A182       
7210727         00000000011011100000011011100111 006E06E7       
4250898         00000000010000001101110100010010 0040DD12       
4055028         00000000001111011101111111110100 003DDFF4       
2754240         00000000001010100000011011000000 002A06C0       
452999          00000000000001101110100110000111 0006E987       
6831458         00000000011010000011110101100010 00683D62       
207636          00000000000000110010101100010100 00032B14       
7280635         00000000011011110001011111111011 006F17FB       
3308937         00000000001100100111110110001001 00327D89       
4303570         00000000010000011010101011010010 0041AAD2       
8375055         00000000011111111100101100001111 007FCB0F       
1457960         00000000000101100011111100101000 00163F28       
5197625         00000000010011110100111100111001 004F4F39       
3144371         00000000001011111111101010110011 002FFAB3       
6674138         00000000011001011101011011011010 0065D6DA       
2692106         00000000001010010001010000001010 0029140A       
2276769         00000000001000101011110110100001 0022BDA1       
1940971         00000000000111011001110111101011 001D9DEB       
3288264         00000000001100100010110011001000 00322CC8       
4819803         00000000010010011000101101011011 00498B5B       
9431005         00000000100011111110011111011101 008FE7DD       
3992019         00000000001111001110100111010011 003CE9D3       
8184782         00000000011111001110001111001110 007CE3CE       
2847975         00000000001010110111010011100111 002B74E7       
7891025         00000000011110000110100001010001 00786851       
900082          00000000000011011011101111110010 000DBBF2       
1831532         00000000000110111111001001101100 001BF26C       
8428253         00000000100000001001101011011101 00809ADD       
2905752         00000000001011000101011010011000 002C5698       
9763121         00000000100101001111100100110001 0094F931       
257890          00000000000000111110111101100010 0003EF62       
4699761         00000000010001111011011001110001 0047B671       
359541          00000000000001010111110001110101 00057C75       
3446150         00000000001101001001010110000110 00349586       
4246818         00000000010000001100110100100010 0040CD22       
1848840         00000000000111000011011000001000 001C3608       
938480          00000000000011100101000111110000 000E51F0       
227465          00000000000000110111100010001001 00037889       
3923488         00000000001110111101111000100000 003BDE20       
8915697         00000000100010000000101011110001 00880AF1       
4309094         00000000010000011100000001100110 0041C066       
3891251         00000000001110110110000000110011 003B6033       
8627956         00000000100000111010011011110100 0083A6F4       
5884613         00000000010110011100101011000101 0059CAC5       
1659318         00000000000110010101000110110110 001951B6       
1834855         00000000000110111111111101100111 001BFF67       
3386751         00000000001100111010110101111111 0033AD7F       
3000166         00000000001011011100011101100110 002DC766       
9135626         00000000100010110110011000001010 008B660A       
4869260         00000000010010100100110010001100 004A4C8C       
76550           00000000000000010010101100000110 00012B06       
432271          00000000000001101001100010001111 0006988F       
251028          00000000000000111101010010010100 0003D494       
7016218         00000000011010110000111100011010 006B0F1A       
6896099         00000000011010010011100111100011 006939E3       
8386350         00000000011111111111011100101110 007FF72E       
8637147         00000000100000111100101011011011 0083CADB       
936705          00000000000011100100101100000001 000E4B01       
6602175         00000000011001001011110110111111 0064BDBF       
1429181         00000000000101011100111010111101 0015CEBD       
8395138         00000000100000000001100110000010 00801982       
6132809         00000000010111011001010001001001 005D9449       
5936917         00000000010110101001011100010101 005A9715       
2878578         00000000001010111110110001110010 002BEC72       
158885          00000000000000100110110010100101 00026CA5       
2441957         00000000001001010100001011100101 002542E5       
5914794         00000000010110100100000010101010 005A40AA       
3999272         00000000001111010000011000101000 003D0628       
3142897         00000000001011111111010011110001 002FF4F1       
8151159         00000000011111000110000001110111 007C6077       
5147564         00000000010011101000101110101100 004E8BAC       
4595374         00000000010001100001111010101110 00461EAE       
4234951         00000000010000001001111011000111 00409EC7       
7880605         00000000011110000011111110011101 00783F9D       
7009921         00000000011010101111011010000001 006AF681       
695580          00000000000010101001110100011100 000A9D1C       
7370443         00000000011100000111011011001011 007076CB       
7921729         00000000011110001110000001000001 0078E041       
8419625         00000000100000000111100100101001 00807929       
7024080         00000000011010110010110111010000 006B2DD0       
3905988         00000000001110111001100111000100 003B99C4       
1767599         00000000000110101111100010101111 001AF8AF       
935136          00000000000011100100010011100000 000E44E0       
635788          00000000000010011011001110001100 0009B38C       
8807719         00000000100001100110010100100111 00866527       
317375          00000000000001001101011110111111 0004D7BF       
9975410         00000000100110000011011001110010 00983672       
2727968         00000000001010011010000000100000 0029A020       
7444399         00000000011100011001011110101111 007197AF       
4065675         00000000001111100000100110001011 003E098B       
9925720         00000000100101110111010001011000 00977458       
2293633         00000000001000101111111110000001 0022FF81       
7734826         00000000011101100000011000101010 0076062A       
1065463         00000000000100000100000111110111 001041F7       
1105617         00000000000100001101111011010001 0010DED1       
5325800         00000000010100010100001111101000 005143E8       
3822527         00000000001110100101001110111111 003A53BF       
5503858         00000000010100111111101101110010 0053FB72       
9214055         00000000100011001001100001100111 008C9867       
6521769         00000000011000111000001110101001 006383A9       
7923796         00000000011110001110100001010100 0078E854       
5250236         00000000010100000001110010111100 00501CBC       
1083154         00000000000100001000011100010010 00108712       
472141          00000000000001110011010001001101 0007344D       
9597454         00000000100100100111001000001110 0092720E       
1581679         00000000000110000010001001101111 0018226F       
656751          00000000000010100000010101101111 000A056F       
345464          00000000000001010100010101111000 00054578       
4281218         00000000010000010101001110000010 00415382       
6558883         00000000011001000001010010100011 006414A3       
3852986         00000000001110101100101010111010 003ACABA       
6263187         00000000010111111001000110010011 005F9193       
5828308         00000000010110001110111011010100 0058EED4       
8058535         00000000011110101111011010100111 007AF6A7       
9035191         00000000100010011101110110110111 0089DDB7       
7922103         00000000011110001110000110110111 0078E1B7       
9366003         00000000100011101110100111110011 008EE9F3       
4555717         00000000010001011000001111000101 004583C5       
3526753         00000000001101011101000001100001 0035D061       
3176815         00000000001100000111100101101111 0030796F       
858440          00000000000011010001100101001000 000D1948       
2250854         00000000001000100101100001100110 00225866       

Total Execution Time: 0.000000 seconds
