Results for source/TC2.txt (32-bit Two's Complement)
------------------------------------------------------------
ITEM            BINARY               HEXADECIMAL    
------------------------------------------------------------
7116776         00000000011011001001011111101000 006C97E8       
1666340         00000000000110010110110100100100 00196D24       
8886983         00000000100001111001101011000111 00879AC7       
839365          00000000000011001100111011000101 000CCEC5       
924280          00000000000011100001101001111000 000E1A78       
1026310         00000000000011111010100100000110 000FA906       
1615293         00000000000110001010010110111101 0018A5BD       
1063875         00000000000100000011101111000011 00103BC3       
679035          00000000000010100101110001111011 000A5C7B       
5201970         00000000010011110110000000110010 004F6032       
593979          00000000000010010001000000111011 0009103B       
801371          00000000000011000011101001011011 000C3A5B       
3796878         00000000001110011110111110001110 0039EF8E       
7489201         00000000011100100100011010110001 007246B1       
9740020         00000000100101001001111011110100 00949EF4       
9128737         00000000100010110100101100100001 008B4B21       
5473463         00000000010100111000010010110111 005384B7       
8701957         00000000100001001100100000000101 0084C805       
8238050         00000000011111011011001111100010 007DB3E2       
8679038         00000000100001000110111001111110 00846E7E       
385912          00000000000001011110001101111000 0005E378       
5867340         00000000010110011000011101001100 0059874C       
4894542         00000000010010101010111101001110 004AAF4E       
8999451         00000000100010010101001000011011 0089521B       
4392535         00000000010000110000011001010111 00430657       
2078131         00000000000111111011010110110011 001FB5B3       
3070124         00000000001011101101100010101100 002ED8AC       
7451998         00000000011100011011010101011110 0071B55E       
5635510         00000000010101011111110110110110 0055FDB6       
1233932         00000000000100101101010000001100 0012D40C       
6089867         00000000010111001110110010001011 005CEC8B       
1792316         00000000000110110101100100111100 001B593C       
6298637         00000000011000000001110000001101 00601C0D       
2408038         00000000001001001011111001100110 0024BE66       
8510100         00000000100000011101101010010100 0081DA94       
991581          00000000000011110010000101011101 000F215D       
6455739         00000000011000101000000110111011 006281BB       
7829175         00000000011101110111011010110111 007776B7       
6328931         00000000011000001001001001100011 00609263       
9982305         00000000100110000101000101100001 00985161       
2292022         00000000001000101111100100110110 0022F936       
1070496         00000000000100000101010110100000 001055A0       
8518360         00000000100000011111101011011000 0081FAD8       
6378470         00000000011000010101001111100110 006153E6       
7756258         00000000011101100101100111100010 007659E2       
7111767         00000000011011001000010001010111 006C8457       
2685897         00000000001010001111101111001001 0028FBC9       
617946          00000000000010010110110111011010 00096DDA       
246280          00000000000000111100001000001000 0003C208       
6075442         00000000010111001011010000110010 005CB432       
991323          00000000000011110010000001011011 000F205B       
6754202         00000000011001110000111110011010 00670F9A       
3103178         00000000001011110101100111001010 002F59CA       
3228842         00000000001100010100010010101010 003144AA       
6786623         00000000011001111000111000111111 00678E3F       
5329085         00000000010100010101000010111101 005150BD       
2334647         00000000001000111001111110110111 00239FB7       
7253396         00000000011011101010110110010100 006EAD94       
6516953         00000000011000110111000011011001 006370D9       
5972725         00000000010110110010001011110101 005B22F5       
5828037         00000000010110001110110111000101 0058EDC5       
6642265         00000000011001010101101001011001 00655A59       
2559699         00000000001001110000111011010011 00270ED3       
6597631         00000000011001001010101111111111 0064ABFF       
5826202         00000000010110001110011010011010 0058E69A       
4642335         00000000010001101101011000011111 0046D61F       
1862900         00000000000111000110110011110100 001C6CF4       
6039635         00000000010111000010100001010011 005C2853       
3358744         00000000001100110100000000011000 00334018       
4965249         00000000010010111100001110000001 004BC381       
6621475         00000000011001010000100100100011 00650923       
3336153         00000000001100101110011111011001 0032E7D9       
1044743         00000000000011111111000100000111 000FF107       
6201477         00000000010111101010000010000101 005EA085       
6297100         00000000011000000001011000001100 0060160C       
885678          00000000000011011000001110101110 000D83AE       
8546891         00000000100000100110101001001011 00826A4B       
6683923         00000000011001011111110100010011 0065FD13       
7064472         00000000011010111100101110011000 006BCB98       
3430021         00000000001101000101011010000101 00345685       
9764122         00000000100101001111110100011010 0094FD1A       
9958605         00000000100101111111010011001101 0097F4CD       
1006022         00000000000011110101100111000110 000F59C6       
5276496         00000000010100001000001101010000 00508350       
8876232         00000000100001110111000011001000 008770C8       
3364648         00000000001100110101011100101000 00335728       
3539979         00000000001101100000010000001011 0036040B       
3003857         00000000001011011101010111010001 002DD5D1       
4481634         00000000010001000110001001100010 00446262       
9035781         00000000100010011110000000000101 0089E005       
3767021         00000000001110010111101011101101 00397AED       
4993901         00000000010011000011001101101101 004C336D       
8698377         00000000100001001011101000001001 0084BA09       
4626501         00000000010001101001100001000101 00469845       
1755352         00000000000110101100100011011000 001AC8D8       
2755340         00000000001010100000101100001100 002A0B0C       
5150616         00000000010011101001011110011000 004E9798       
9345169         00000000100011101001100010010001 008E9891       
848948          00000000000011001111010000110100 000CF434       
2708748         00000000001010010101010100001100 0029550C       
8372451         00000000011111111100000011100011 007FC0E3       
3523015         00000000001101011100000111000111 0035C1C7       
2624283         00000000001010000000101100011011 00280B1B       
8795348         00000000100001100011010011010100 008634D4       
2318100         00000000001000110101111100010100 00235F14       
4750861         00000000010010000111111000001101 00487E0D       
3770597         00000000001110011000100011100101 003988E5       
1053352         00000000000100000001001010101000 001012A8       
833307          00000000000011001011011100011011 000CB71B       
4632526         00000000010001101010111111001110 0046AFCE       
2212917         00000000001000011100010000110101 0021C435       
5053189         00000000010011010001101100000101 004D1B05       
412218          00000000000001100100101000111010 00064A3A       
4901564         00000000010010101100101010111100 004ACABC       
5094606         00000000010011011011110011001110 004DBCCE       
8070285         00000000011110110010010010001101 007B248D       
6847905         00000000011010000111110110100001 00687DA1       
4311824         00000000010000011100101100010000 0041CB10       
3009421         00000000001011011110101110001101 002DEB8D       
1629105         00000000000110001101101110110001 0018DBB1       
8431899         00000000100000001010100100011011 0080A91B       
7582456         00000000011100111011001011111000 0073B2F8       
7332147         00000000011011111110000100110011 006FE133       
314183          00000000000001001100101101000111 0004CB47       
7632568         00000000011101000111011010111000 007476B8       
8161327         00000000011111001000100000101111 007C882F       
6961087         00000000011010100011011110111111 006A37BF       
6898282         00000000011010010100001001101010 0069426A       
9749303         00000000100101001100001100110111 0094C337       
4427419         00000000010000111000111010011011 00438E9B       
4368829         00000000010000101010100110111101 0042A9BD       
6439318         00000000011000100100000110010110 00624196       
6473603         00000000011000101100011110000011 0062C783       
6446249         00000000011000100101110010101001 00625CA9       
9818836         00000000100101011101001011010100 0095D2D4       
9438069         00000000100100000000001101110101 00900375       
2809499         00000000001010101101111010011011 002ADE9B       
3460304         00000000001101001100110011010000 0034CCD0       
8430904         00000000100000001010010100111000 0080A538       
9774785         00000000100101010010011011000001 009526C1       
9560603         00000000100100011110001000011011 0091E21B       
3440732         00000000001101001000000001011100 0034805C       
7053263         00000000011010111001111111001111 006B9FCF       
287398          00000000000001000110001010100110 000462A6       
4043644         00000000001111011011001101111100 003DB37C       
2943820         00000000001011001110101101001100 002CEB4C       
9030962         00000000100010011100110100110010 0089CD32       
7537540         00000000011100110000001110000100 00730384       
7203657         00000000011011011110101101001001 006DEB49       
5639400         00000000010101100000110011101000 00560CE8       
9448142         00000000100100000010101011001110 00902ACE       
9954392         00000000100101111110010001011000 0097E458       
2856859         00000000001010111001011110011011 002B979B       
1332118         00000000000101000101001110010110 00145396       
6984725         00000000011010101001010000010101 006A9415       
1925762         00000000000111010110001010000010 001D6282       
2138171         00000000001000001010000000111011 0020A03B       
347447          00000000000001010100110100110111 00054D37       
8839390         00000000100001101110000011011110 0086E0DE       
3951652         00000000001111000100110000100100 003C4C24       
3755102         00000000001110010100110001011110 00394C5E       
6867687         00000000011010001100101011100111 0068CAE7       
4383175         00000000010000101110000111000111 0042E1C7       
7125508         00000000011011001011101000000100 006CBA04       
7799732         00000000011101110000001110110100 007703B4       
8784156         00000000100001100000100100011100 0086091C       
1372809         00000000000101001111001010001001 0014F289       
1327984         00000000000101000100001101110000 00144370       
9205087         00000000100011000111010101011111 008C755F       
6524241         00000000011000111000110101010001 00638D51       
9316072         00000000100011100010011011101000 008E26E8       
127744          00000000000000011111001100000000 0001F300       
8388820         00000000100000000000000011010100 008000D4       
6883557         00000000011010010000100011100101 006908E5       
2291239         00000000001000101111011000100111 0022F627       
3101270         00000000001011110101001001010110 002F5256       
1382825         00000000000101010001100110101001 001519A9       
9873376         00000000100101101010011111100000 0096A7E0       
6873500         00000000011010001110000110011100 0068E19C       
8185634         00000000011111001110011100100010 007CE722       
2464786         00000000001001011001110000010010 00259C12       
8387154         00000000011111111111101001010010 007FFA52       
5581444         00000000010101010010101010000100 00552A84       
8097911         00000000011110111001000001110111 007B9077       
8882527         00000000100001111000100101011111 0087895F       
8941444         00000000100010000110111110000100 00886F84       
4942703         00000000010010110110101101101111 004B6B6F       
101144          00000000000000011000101100011000 00018B18       
7471180         00000000011100100000000001001100 0072004C       
1932131         00000000000111010111101101100011 001D7B63       
8052752         00000000011110101110000000010000 007AE010       
6359493         00000000011000010000100111000101 006109C5       
1967646         00000000000111100000011000011110 001E061E       
6575052         00000000011001000101001111001100 006453CC       
2323342         00000000001000110111001110001110 0023738E       
6735760         00000000011001101100011110010000 0066C790       
8895858         00000000100001111011110101110010 0087BD72       
4238091         00000000010000001010101100001011 0040AB0B       
7093069         00000000011011000011101101001101 006C3B4D       
39              00000000000000000000000000100111 00000027       

Total Execution Time: 0.000000 seconds
